:1000000040C064C063C062C061C060C05FC05EC009
:100010005DC0F4C05BC067C2AFC258C057C056C015
:1000200055C054C053C000000000370034003100F8
:1000300000000000380035003200000000003600EB
:100040003300300004040404040404040202020225
:10005000020203030303030301020408102040808B
:100060000102040810200102040810200000000012
:100070000000000000030405000000000000000074
:10008000220411241FBECFE5D4E0DEBFCDBF10E0B7
:10009000A0E6B0E0EEEFFBE002C005900D92AA38BA
:1000A000B107D9F711E0AAE8B0E001C01D92A13470
:1000B000B107E1F710E0C2E8D0E003C02297FE01EB
:1000C00098D5C038D107D1F711D497C599CF809171
:1000D0006E00CFD19C018130910589F4809174002C
:1000E0009091750090938D0080938C0030938B00DD
:1000F00020938A008FE191E060E670E026D5809140
:100100007000B7D19C018130910589F4809176000F
:100110009091770090938D0080938C0030938B00AA
:1001200020938A008FE191E062E670E00ED5809125
:1001300072009FD19C018130910589F480917800F3
:100140009091790090938D0080938C0030938B0078
:1001500020938A008FE191E064E670E0F6D480910C
:100160008A0090918B0018161906A4F480917400EF
:1001700060E046D18091760060E042D180917800C5
:1001800060E03ED110928B0010928A0080918C002A
:1001900061E036D164EF71E080E090E077D08FE1EC
:1001A00091E066E670E0CFD460918C0070918D0094
:1001B0008FE191E04AE050E0A9D408958FE191E009
:1001C00040E855E260E070E00DD280916E0060E0A2
:1001D000D8D08091700060E0D4D08091720060E04F
:1001E000D0D08091740061E0CCD08091760061E045
:1001F000C8D08091780061E0C4D008951F920F921A
:100200000FB60F9211242F933F938F939F93AF9329
:10021000BF938091920090919300A0919400B0912F
:100220009500309196000196A11DB11D232F2D5FE1
:100230002D3720F02D570196A11DB11D209396005A
:100240008093920090939300A0939400B0939500B4
:1002500080918E0090918F00A0919000B0919100BC
:100260000196A11DB11D80938E0090938F00A093E5
:100270009000B0939100BF91AF919F918F913F916A
:100280002F910F900FBE0F901F9018959B01AC01FE
:100290007FB7F89480918E0090918F00A09190008C
:1002A000B091910062B708B600FE05C06F3F19F02B
:1002B0000196A11DB11D7FBFBA2FA92F982F8827A6
:1002C000860F911DA11DB11D62E0880F991FAA1F05
:1002D000BB1F6A95D1F7BC012EC0FFB7F89480917F
:1002E0008E0090918F00A0919000B0919100E2B7A4
:1002F00008B600FE05C0EF3F19F00196A11DB11D23
:10030000FFBFBA2FA92F982F88278E0F911DA11DEF
:10031000B11DE2E0880F991FAA1FBB1FEA95D1F714
:10032000861B970B885E9340C0F2215030404040BE
:10033000504068517C4F211531054105510569F642
:100340000895789483B7826083BF83B7816083BF49
:1003500089B7816089BF1EBC8EB582608EBD8EB5A7
:1003600081608EBD8FB581608FBD85B5846085BD90
:1003700085B5806485BD329A319A309A379A1AB819
:100380000895CF93DF93482F50E0CA01885A9F4FBA
:10039000FC0134914C5B5F4FFA018491882369F131
:1003A00090E0880F991FFC01EA5DFF4FA591B49181
:1003B000FC01E05DFF4FC591D491662351F42FB746
:1003C000F8948C91932F909589238C93888189231D
:1003D0000BC0623061F42FB7F8948C91932F9095F5
:1003E00089238C938881832B88832FBF06C09FB776
:1003F000F8948C91832B8C939FBFDF91CF910895BC
:10040000482F50E0CA0184599F4FFC012491CA0132
:10041000885A9F4FFC0194914C5B5F4FFA013491D5
:10042000332331F1222381F0243039F0253049F093
:10043000233051F48FB58F7702C08FB58F7D8FBD7C
:1004400003C085B58F7D85BDE32FF0E0EE0FFF1F64
:10045000E05DFF4FA591B4912FB7F894662321F486
:100460008C919095892302C08C91892B8C932FBFFE
:100470000895682F70E0CB0184599F4FFC012491AF
:10048000CB01885A9F4FFC0144916C5B7F4FFB016D
:100490009491992319F420E030E022C0222381F0C6
:1004A000243039F0253049F0233051F48FB58F775F
:1004B00002C08FB58F7D8FBD03C085B58F7D85BD93
:1004C000892F90E0880F991F865C9F4FFC01A591B2
:1004D000B4918C9120E030E0842311F021E030E0F1
:1004E000C901089508951F920F920FB60F9211241B
:1004F0002F933F934F938F939F93EF93FF935A992B
:100500001CC04CB12091D7003091D8002F5F3F4FD5
:100510002F7330708091D9009091DA002817390735
:1005200069F0E091D700F091D800E956FF4F408381
:100530003093D8002093D70001C08CB1FF91EF9188
:100540009F918F914F913F912F910F900FBE0F90E0
:100550001F901895E0912B01F0912C01E05CFF4F6A
:100560008191919120813181821B930B8F739070C7
:10057000892B09F0B7DF08951F920F920FB60F92E3
:1005800011242F933F938F939F93EF93FF93209189
:100590001B0130911C0180911D0190911E012817B3
:1005A000390711F4559813C0E0911D01F0911E0117
:1005B000E552FF4F208180911D0190911E0101960F
:1005C0008F73907090931E0180931D012CB9FF9141
:1005D000EF919F918F913F912F910F900FBE0F90B0
:1005E0001F901895AF92BF92DF92EF92FF920F93F8
:1005F0001F93CF93DF93EC017A018B01DD24403010
:1006000081EE580780E0680780E0780711F0DD246C
:10061000D39491E0A92EB12CEC89FD89DD2069F0FD
:10062000C50108A002C0880F991F0A94E2F78083D1
:1006300060E079E08DE390E005C0108260E874E846
:100640008EE190E0A8019701B0D2215030404040A7
:100650005040569547953795279580E120303807CB
:1006600020F0DD2011F0DD24D7CFE889F98930832F
:10067000EA89FB89208319A2EE89FF89408121E064
:1006800030E0C9010C8C02C0880F991F0A94E2F770
:10069000482B4083EE89FF894081C9010D8C02C03F
:1006A000880F991F0A94E2F7482B4083EE89FF894F
:1006B0004081C9010E8C02C0880F991F0A94E2F78D
:1006C000482B4083EE89FF8980810F8C02C0220F66
:1006D000331F0A94E2F7209528232083DF91CF91DE
:1006E0001F910F91FF90EF90DF90BF90AF90089512
:1006F000DC011C96ED91FC911D97E05CFF4F219170
:10070000319180819181281B390B2F733070C90181
:100710000895DC011C96ED91FC911D97E05CFF4F64
:1007200020813181E054F040DF01AE5BBF4F8D91FD
:100730009C9111972817390719F42FEF3FEF07C045
:100740008D919C91E80FF91F8081282F30E0C9011D
:100750000895DC011C96ED91FC911D97E05CFF4F24
:1007600020813181E054F040DF01AE5BBF4F8D91BD
:100770009C9111972817390719F42FEF3FEF10C0FC
:100780008D919C911197E80FF91F20818D919C917B
:10079000119701968F73907011969C938E9330E011
:1007A000C9010895DC0191968C919197882339F0C5
:1007B0005496ED91FC915597808186FFF9CF9196E3
:1007C0001C920895CF93DF93EC01EE85FF85E05CEA
:1007D000FF4F20813181E054F0402F5F3F4F2F7356
:1007E0003070DF01AE5BBF4F8D919C911197281740
:1007F0003907D1F3E05CFF4F80819181E054F040F4
:10080000E80FF91F6083EE85FF85E05CFF4F3183C1
:100810002083EE89FF89208181E090E00F8C02C067
:10082000880F991F0A94E2F7282B208381E089A37F
:10083000EC89FD8980818064808381E090E0DF9194
:10084000CF910895109222011092210188EE93E039
:10085000A0E0B0E08093230190932401A0932501B0
:10086000B09326018EE790E09093200180931F01C2
:1008700087E990E090932C0180932B018BED90E021
:1008800090932E0180932D0120E430E030933001CD
:1008900020932F0189E290E09093320180933101FF
:1008A0008BE290E090933401809333018AE290E0F0
:1008B00090933601809335013093380120933701AE
:1008C0008CE290E090933A018093390184E0809328
:1008D0003B0183E080933C0187E080933D0185E00C
:1008E00080933E0181E080933F010895CF93DF9391
:1008F00028DD64DCCAEAD2E0EADB2097E9F32ADEED
:10090000FBCFCF92DF92EF92FF920F931F93CF9383
:10091000DF937C016B018A01C0E0D0E00FC0D601FB
:100920006D916D01D701ED91FC910190F081E02D69
:10093000C7010995C80FD91F0150104001151105B5
:1009400071F7CE01DF91CF911F910F91FF90EF9042
:10095000DF90CF900895EF92FF920F931F938C0139
:10096000DC01ED91FC910190F081E02D6DE00995A5
:100970007C01D801ED91FC910190F081E02DC8013E
:100980006AE009959C012E0D3F1DC9011F910F9131
:10099000FF90EF900895CF93DF93EC0161157105FF
:1009A00019F420E030E00FC0DB010D900020E9F7E2
:1009B0001197A61BB70BE881F9810280F381E02D26
:1009C000AD0109959C01C901DF91CF9108954F9226
:1009D0005F927F928F929F92AF92BF92CF92DF925F
:1009E000EF92FF920F931F93DF93CF93CDB7DEB7B4
:1009F000A1970FB6F894DEBF0FBECDBF2C01742EA9
:100A0000CB01223008F42AE019A231E2C32ED12C06
:100A1000CC0EDD1E822E9924AA24BB24672D752FAF
:100A2000A5019401C2D079018A01C801B701A501CD
:100A300094019CD0472D461B0894C108D1084A3028
:100A400014F4405D01C0495CF6014083E114F104F7
:100A50000105110521F07E2C5F2DC801DFCFC201F9
:100A6000B60199DFA1960FB6F894DEBF0FBECDBFD9
:100A7000CF91DF911F910F91FF90EF90DF90CF907A
:100A8000BF90AF909F908F907F905F904F90089510
:100A9000CF92DF92EF92FF920F931F93CF93DF934A
:100AA000EC016A017B012115310541F4E881F981EE
:100AB0000190F081E02D642F09951DC02A30310589
:100AC000C9F477FF16C0E881F9810190F081E02D2B
:100AD0006DE209958C0144275527BA014C195D092F
:100AE0006E097F09CE012AE072DF9801280F391FB5
:100AF00003C02AE06CDF9C01C901DF91CF911F91F7
:100B00000F91FF90EF90DF90CF900895CF92DF92FA
:100B1000EF92FF920F931F936C017B019A010027C4
:100B2000F7FC0095102FB801A701B2DF8C01C601B8
:100B300012DF080F191FC8011F910F91FF90EF904E
:100B4000DF90CF90089527DF0895EF92FF920F93E3
:100B50001F937C0120DF8C01C701FDDE080F191FE8
:100B6000C8011F910F91FF90EF900895629FD001EF
:100B7000739FF001829FE00DF11D649FE00DF11D58
:100B8000929FF00D839FF00D749FF00D659FF00D07
:100B90009927729FB00DE11DF91F639FB00DE11DF4
:100BA000F91FBD01CF0111240895A1E21A2EAA1B3D
:100BB000BB1BFD010DC0AA1FBB1FEE1FFF1FA2170D
:100BC000B307E407F50720F0A21BB30BE40BF50B0A
:100BD000661F771F881F991F1A9469F76095709593
:100BE000809590959B01AC01BD01CF010895EE0F5A
:0E0BF000FF1F0590F491E02D0994F894FFCFBB
:100BFE004100420043004C696768743A20000A00C5
:100C0E00090008000D000C000B0000000000E203BC
:0A0C1E0081047803A9038903D203BF
:00000001FF
